S01100006469665F74656D706F2E737265635C
S11300000C9434000C943E000C943E000C943E007E
S11300100C943E000C943E000C943E000C943E0064
S11300200C943E000C943E000C943E000C943E0054
S11300300C943E000C943E000C9458000C943E002A
S11300400C943E000C943E000C943E000C943E0034
S11300500C943E000C943E000C943E000C943E0024
S11300600C943E000C943E0011241FBECFEFD8E048
S1130070DEBFCDBF0E9440000C946A000C940000C7
S1130080F894E1E6F0E080E88083108281EC8AB99C
S113009014BC15BC82E084BD91E095BD16BC94E609
S11300A097BD80936E00109269001DBA7894FFCFBB
S11300B01F920F920FB60F9211248F939F939BB1AF
S11300C080E489278BB99F918F910F900FBE0F9079
S10B00D01F901895F894FFCF6E
S9030000FC
