S016000044657376696F5F64655F466173652E737265639E
S11300000C9434000C948D000C9446000C9446001F
S11300100C9446000C9446000C9446000C94460044
S11300200C9446000C9446000C9446000C94460034
S11300300C9446000C9446000C947B000C944600EF
S11300400C9446000C9446000C9446000C94460014
S11300500C9446000C9446000C9446000C94460004
S11300600C9446000C94460011241FBECFEFD8E038
S1130070DEBFCDBF21E0A0E0B1E001C01D92A230FF
S1130080B207E1F70E9448000C94A6000C9400000B
S1130090F894E1E6F0E080E8808310828AB1816C14
S11300A08AB984B584BD85B585BD84B5826084BDB7
S11300B085B5816085BD16BC87B5836687BD82E042
S11300C080936E00E9E6F0E0808182608083E89AA4
S11300D0239AA0EBB0E08C918C93E1EBF0E080816B
S11300E080838C91836C8C93808184608083109254
S11300F0B2007894FFCF1F920F920FB60F92112483
S11301008F939F939BB180E489278BB99F918F91A3
S11301100F900FBE0F901F9018951F920F920FB65D
S11301200F9211242F933F938F9386B5282F30E09D
S113013030930101209300018093B3008F913F918C
S11301402F910F900FBE0F901F901895F894FFCF2A
S9030000FC
