:020000020000FC
:0200000028C016
:0200040075C0C5
:0200080091C0A5
:020034006FC09B
:0200380047C0BF
:100050003AC0F89400E80093610000E0009361006A
:10006000509A569A579A3B9A3C9A01E80093C400DA
:1000700000E00093C50006E00093C20008E400938E
:10008000C10000E004BD05BD02E004BD01E005BD06
:1000900008EF07BD00E00BB902E000936E000EE030
:1000A0000093690002E00DBB00E00093800001E0D6
:1000B0000093810001E000936F0000E030E040E039
:1000C00070E0789400C0FFCFF894703031F400C035
:1000D0005E9A71E07894370FF6CF5E9870E078946E
:1000E000F2CF5E9870E000E0009325007894EBCFAB
:1000F000F89400E005BD00E00093810010918400B9
:10010000209185005E9870E04398449802E00DBB12
:100110007894D9CFF894603029F400C0589A61E0FF
:100120007894D1CF589860E07894CDCFF89400E0DF
:1001300006BD009384000093850001E005BD01E049
:100140000093810001E00DBB30E0483029F000C091
:1001500048E0439A7894B7CF40E1449A7894B3CF7B
:00000001FF
