:020000020000FC
:020000001CC022
:02000400BEC07C
:02003400A2C068
:100038008CC0F89400E80093610000E00093610030
:100048003B9A3C9A3D9A569A00E00093C50001E815
:100058000093C40000E10093C10006E00093C200D1
:1000680000E004BD05BD02E004BD00E005BD08EFE9
:1000780007BD00E00BB902E000936E0000E00093BA
:10008800800000E00093810001E000936F0002E02F
:100098000093690000E00DBB00E010E020E030E0D4
:1000A80040E050E070E0459844984398789400C048
:1000B80045980091C00007FFFBCF5091C60000E0B3
:1000C8000093C10001E000931C00513309F41AC0E9
:1000D800523309F428C008E00093C100459A009102
:1000E800C00005FFF8CF65E46093C60000C000912A
:1000F800C00006FFFCCF00E60093C00000E10093BB
:10010800C100D6CFF89401E00DBB00E006BD009316
:1001180084000093850040E001E005BD0093810064
:10012800439A789411C0F89401E00DBB00E006BD35
:10013800009384000093850040E001E005BD009332
:100148008100449A789400C0FFCFF894703031F45D
:1001580000C05E9A71E07894470FF6CF5E9870E021
:100168007894F2CF5E9870E000E0009325007894D0
:10017800EBCFF89433957894E7CFF89400E00093A8
:10018800810005BD00E00DBB109184002091850021
:100198005E9870E04398449808E00093C100459A3F
:1001A800789400C00091C00005FFFCCF5093C600B2
:1001B8000091C00006FFFCCF00E60093C00000914C
:1001C800C00005FFFCCF1093C6000091C00006FFD9
:1001D800FCCF00E60093C0000091C00005FFFCCFF3
:1001E8002093C6000091C00006FFFCCF00E60093F4
:1001F800C0000091C00005FFFCCF3093C60077CF48
:00000001FF
