S0130000746573746573657269616C2E737265636C
S11300000C9434000C943E000C943E000C943E007E
S11300100C943E000C943E000C943E000C943E0064
S11300200C943E000C943E000C943E000C943E0054
S11300300C943E000C943E000C943E000C943E0044
S11300400C943E000C943E000C943E000C943E0034
S11300500C943E000C943E000C943E000C943E0024
S11300600C943E000C943E0011241FBECFEFD8E048
S1130070DEBFCDBF0E9463000C9470000C9400009E
S113008088E387B91092C50081E88093C400E2EC4C
S1130090F0E0808186608083E1ECF0E0808188611B
S11300A080830895459AE0ECF0E0908195FFFDCFC0
S11300B08093C6000895E0ECF0E080818823ECF79B
S11300C08091C60008950E9440000E945B00813325
S11300D011F4439A01C0449A0E94520018B8F5CF13
S10700E0F894FFCFBE
S9030000FC
